{
  "_format": "hh-sol-artifact-1",
  "contractName": "Marketplace",
  "sourceName": "contracts/MarketplaceERC20.sol",
  "abi": [
    {
      "inputs": [
        {
          "internalType": "contract ERC20",
          "name": "_token",
          "type": "address"
        }
      ],
      "stateMutability": "nonpayable",
      "type": "constructor"
    },
    {
      "anonymous": false,
      "inputs": [
        {
          "indexed": true,
          "internalType": "string",
          "name": "name",
          "type": "string"
        },
        {
          "indexed": true,
          "internalType": "uint256",
          "name": "stock",
          "type": "uint256"
        },
        {
          "indexed": true,
          "internalType": "bool",
          "name": "active",
          "type": "bool"
        },
        {
          "indexed": false,
          "internalType": "uint256",
          "name": "price",
          "type": "uint256"
        },
        {
          "indexed": false,
          "internalType": "uint256",
          "name": "maxPerUser",
          "type": "uint256"
        },
        {
          "indexed": false,
          "internalType": "string",
          "name": "image",
          "type": "string"
        },
        {
          "indexed": false,
          "internalType": "uint256",
          "name": "start",
          "type": "uint256"
        },
        {
          "indexed": false,
          "internalType": "uint256",
          "name": "end",
          "type": "uint256"
        }
      ],
      "name": "CreateProduct",
      "type": "event"
    },
    {
      "anonymous": false,
      "inputs": [
        {
          "indexed": true,
          "internalType": "address",
          "name": "oldOwner",
          "type": "address"
        },
        {
          "indexed": true,
          "internalType": "address",
          "name": "newOwner",
          "type": "address"
        }
      ],
      "name": "OwnerSet",
      "type": "event"
    },
    {
      "inputs": [
        {
          "internalType": "uint256",
          "name": "",
          "type": "uint256"
        }
      ],
      "name": "activeProductIds",
      "outputs": [
        {
          "internalType": "uint256",
          "name": "",
          "type": "uint256"
        }
      ],
      "stateMutability": "view",
      "type": "function"
    },
    {
      "inputs": [
        {
          "internalType": "uint256",
          "name": "_productId",
          "type": "uint256"
        },
        {
          "internalType": "uint256",
          "name": "_amount",
          "type": "uint256"
        }
      ],
      "name": "buy",
      "outputs": [],
      "stateMutability": "nonpayable",
      "type": "function"
    },
    {
      "inputs": [
        {
          "internalType": "uint256",
          "name": "_productId",
          "type": "uint256"
        },
        {
          "internalType": "uint256",
          "name": "_amount",
          "type": "uint256"
        },
        {
          "internalType": "address",
          "name": "_to",
          "type": "address"
        }
      ],
      "name": "buyFor",
      "outputs": [],
      "stateMutability": "nonpayable",
      "type": "function"
    },
    {
      "inputs": [
        {
          "internalType": "address",
          "name": "newOwner",
          "type": "address"
        }
      ],
      "name": "changeOwner",
      "outputs": [],
      "stateMutability": "nonpayable",
      "type": "function"
    },
    {
      "inputs": [
        {
          "internalType": "uint256",
          "name": "_productId",
          "type": "uint256"
        },
        {
          "internalType": "string",
          "name": "_name",
          "type": "string"
        },
        {
          "internalType": "string",
          "name": "_image",
          "type": "string"
        },
        {
          "internalType": "bool",
          "name": "_active",
          "type": "bool"
        },
        {
          "internalType": "uint256",
          "name": "_start",
          "type": "uint256"
        },
        {
          "internalType": "uint256",
          "name": "_end",
          "type": "uint256"
        },
        {
          "internalType": "uint256",
          "name": "_stock",
          "type": "uint256"
        },
        {
          "internalType": "uint256",
          "name": "_price",
          "type": "uint256"
        },
        {
          "internalType": "uint256",
          "name": "_maxPerUser",
          "type": "uint256"
        }
      ],
      "name": "changeProduct",
      "outputs": [],
      "stateMutability": "nonpayable",
      "type": "function"
    },
    {
      "inputs": [
        {
          "internalType": "uint256",
          "name": "_productId",
          "type": "uint256"
        },
        {
          "internalType": "uint256",
          "name": "_time",
          "type": "uint256"
        }
      ],
      "name": "changeProductEnd",
      "outputs": [],
      "stateMutability": "nonpayable",
      "type": "function"
    },
    {
      "inputs": [
        {
          "internalType": "uint256",
          "name": "_productId",
          "type": "uint256"
        },
        {
          "internalType": "string",
          "name": "_image",
          "type": "string"
        }
      ],
      "name": "changeProductImage",
      "outputs": [],
      "stateMutability": "nonpayable",
      "type": "function"
    },
    {
      "inputs": [
        {
          "internalType": "uint256",
          "name": "_productId",
          "type": "uint256"
        },
        {
          "internalType": "string",
          "name": "_name",
          "type": "string"
        }
      ],
      "name": "changeProductName",
      "outputs": [],
      "stateMutability": "nonpayable",
      "type": "function"
    },
    {
      "inputs": [
        {
          "internalType": "uint256",
          "name": "_productId",
          "type": "uint256"
        },
        {
          "internalType": "uint256",
          "name": "_price",
          "type": "uint256"
        }
      ],
      "name": "changeProductPrice",
      "outputs": [],
      "stateMutability": "nonpayable",
      "type": "function"
    },
    {
      "inputs": [
        {
          "internalType": "uint256",
          "name": "_productId",
          "type": "uint256"
        },
        {
          "internalType": "uint256",
          "name": "_time",
          "type": "uint256"
        }
      ],
      "name": "changeProductStart",
      "outputs": [],
      "stateMutability": "nonpayable",
      "type": "function"
    },
    {
      "inputs": [
        {
          "internalType": "uint256",
          "name": "_productId",
          "type": "uint256"
        },
        {
          "internalType": "bool",
          "name": "_active",
          "type": "bool"
        }
      ],
      "name": "changeProductState",
      "outputs": [],
      "stateMutability": "nonpayable",
      "type": "function"
    },
    {
      "inputs": [
        {
          "internalType": "uint256",
          "name": "_productId",
          "type": "uint256"
        },
        {
          "internalType": "uint256",
          "name": "_stock",
          "type": "uint256"
        }
      ],
      "name": "changeProductStock",
      "outputs": [],
      "stateMutability": "nonpayable",
      "type": "function"
    },
    {
      "inputs": [
        {
          "internalType": "uint256",
          "name": "_productId",
          "type": "uint256"
        },
        {
          "internalType": "uint256",
          "name": "_maxPerUser",
          "type": "uint256"
        }
      ],
      "name": "changeProductUserLimit",
      "outputs": [],
      "stateMutability": "nonpayable",
      "type": "function"
    },
    {
      "inputs": [
        {
          "internalType": "string",
          "name": "_name",
          "type": "string"
        },
        {
          "internalType": "string",
          "name": "_image",
          "type": "string"
        },
        {
          "internalType": "bool",
          "name": "_active",
          "type": "bool"
        },
        {
          "internalType": "uint256",
          "name": "_start",
          "type": "uint256"
        },
        {
          "internalType": "uint256",
          "name": "_end",
          "type": "uint256"
        },
        {
          "internalType": "uint256",
          "name": "_stock",
          "type": "uint256"
        },
        {
          "internalType": "uint256",
          "name": "_price",
          "type": "uint256"
        },
        {
          "internalType": "uint256",
          "name": "_maxPerUser",
          "type": "uint256"
        }
      ],
      "name": "createProduct",
      "outputs": [],
      "stateMutability": "nonpayable",
      "type": "function"
    },
    {
      "inputs": [],
      "name": "deleteLastActiveProduct",
      "outputs": [],
      "stateMutability": "nonpayable",
      "type": "function"
    },
    {
      "inputs": [],
      "name": "getActiveProducts",
      "outputs": [
        {
          "components": [
            {
              "internalType": "uint256",
              "name": "id",
              "type": "uint256"
            },
            {
              "internalType": "string",
              "name": "name",
              "type": "string"
            },
            {
              "internalType": "string",
              "name": "image",
              "type": "string"
            },
            {
              "internalType": "bool",
              "name": "active",
              "type": "bool"
            },
            {
              "internalType": "uint256",
              "name": "start",
              "type": "uint256"
            },
            {
              "internalType": "uint256",
              "name": "end",
              "type": "uint256"
            },
            {
              "internalType": "uint256",
              "name": "stock",
              "type": "uint256"
            },
            {
              "internalType": "uint256",
              "name": "price",
              "type": "uint256"
            },
            {
              "internalType": "uint256",
              "name": "maxPerUser",
              "type": "uint256"
            }
          ],
          "internalType": "struct Marketplace.Product[]",
          "name": "",
          "type": "tuple[]"
        }
      ],
      "stateMutability": "view",
      "type": "function"
    },
    {
      "inputs": [],
      "name": "getOwner",
      "outputs": [
        {
          "internalType": "address",
          "name": "",
          "type": "address"
        }
      ],
      "stateMutability": "view",
      "type": "function"
    },
    {
      "inputs": [],
      "name": "getTotalActiveProduct",
      "outputs": [
        {
          "internalType": "uint256",
          "name": "",
          "type": "uint256"
        }
      ],
      "stateMutability": "view",
      "type": "function"
    },
    {
      "inputs": [],
      "name": "getTotalProducts",
      "outputs": [
        {
          "internalType": "uint256",
          "name": "",
          "type": "uint256"
        }
      ],
      "stateMutability": "view",
      "type": "function"
    },
    {
      "inputs": [
        {
          "internalType": "address",
          "name": "_user",
          "type": "address"
        }
      ],
      "name": "getUserOwnedProducts",
      "outputs": [
        {
          "internalType": "uint256[]",
          "name": "",
          "type": "uint256[]"
        }
      ],
      "stateMutability": "view",
      "type": "function"
    },
    {
      "inputs": [
        {
          "internalType": "address",
          "name": "_user",
          "type": "address"
        },
        {
          "internalType": "uint256",
          "name": "_productId",
          "type": "uint256"
        }
      ],
      "name": "getUserStockOwned",
      "outputs": [
        {
          "internalType": "uint256",
          "name": "",
          "type": "uint256"
        }
      ],
      "stateMutability": "view",
      "type": "function"
    },
    {
      "inputs": [
        {
          "internalType": "address",
          "name": "_user",
          "type": "address"
        }
      ],
      "name": "getUserTotalSpend",
      "outputs": [
        {
          "internalType": "uint256",
          "name": "",
          "type": "uint256"
        }
      ],
      "stateMutability": "view",
      "type": "function"
    },
    {
      "inputs": [
        {
          "internalType": "address",
          "name": "_token",
          "type": "address"
        },
        {
          "internalType": "uint256",
          "name": "_tokenId",
          "type": "uint256"
        }
      ],
      "name": "ownerWithdrawNFT",
      "outputs": [],
      "stateMutability": "nonpayable",
      "type": "function"
    },
    {
      "inputs": [
        {
          "internalType": "address",
          "name": "_token",
          "type": "address"
        },
        {
          "internalType": "uint256",
          "name": "_amount",
          "type": "uint256"
        }
      ],
      "name": "ownerWithdrawToken",
      "outputs": [],
      "stateMutability": "nonpayable",
      "type": "function"
    },
    {
      "inputs": [],
      "name": "pause",
      "outputs": [],
      "stateMutability": "nonpayable",
      "type": "function"
    },
    {
      "inputs": [],
      "name": "paused",
      "outputs": [
        {
          "internalType": "bool",
          "name": "",
          "type": "bool"
        }
      ],
      "stateMutability": "view",
      "type": "function"
    },
    {
      "inputs": [
        {
          "internalType": "uint256",
          "name": "",
          "type": "uint256"
        }
      ],
      "name": "products",
      "outputs": [
        {
          "internalType": "uint256",
          "name": "id",
          "type": "uint256"
        },
        {
          "internalType": "string",
          "name": "name",
          "type": "string"
        },
        {
          "internalType": "string",
          "name": "image",
          "type": "string"
        },
        {
          "internalType": "bool",
          "name": "active",
          "type": "bool"
        },
        {
          "internalType": "uint256",
          "name": "start",
          "type": "uint256"
        },
        {
          "internalType": "uint256",
          "name": "end",
          "type": "uint256"
        },
        {
          "internalType": "uint256",
          "name": "stock",
          "type": "uint256"
        },
        {
          "internalType": "uint256",
          "name": "price",
          "type": "uint256"
        },
        {
          "internalType": "uint256",
          "name": "maxPerUser",
          "type": "uint256"
        }
      ],
      "stateMutability": "view",
      "type": "function"
    },
    {
      "inputs": [],
      "name": "token",
      "outputs": [
        {
          "internalType": "contract ERC20",
          "name": "",
          "type": "address"
        }
      ],
      "stateMutability": "view",
      "type": "function"
    },
    {
      "inputs": [],
      "name": "unpause",
      "outputs": [],
      "stateMutability": "nonpayable",
      "type": "function"
    },
    {
      "inputs": [
        {
          "internalType": "address",
          "name": "",
          "type": "address"
        }
      ],
      "name": "users",
      "outputs": [
        {
          "internalType": "uint256",
          "name": "totalSpend",
          "type": "uint256"
        }
      ],
      "stateMutability": "view",
      "type": "function"
    }
  ],
  "bytecode": "0x60a06040523480156200001157600080fd5b50604051620028b5380380620028b5833981016040819052620000349162000093565b6001600160a01b03818116608052600080546001600160a81b03191661010033810291909117808355604051919004909216917f342827c97908e5e2f71151c08502a66d44b6f758e3ac2f1de95f02eb95f0a735908290a350620000c5565b600060208284031215620000a657600080fd5b81516001600160a01b0381168114620000be57600080fd5b9392505050565b6080516127c6620000ef6000396000818161047701528181610e080152611d3f01526127c66000f3fe608060405234801561001057600080fd5b50600436106101d95760003560e01c806384f1049211610104578063a6f9dae1116100a2578063d6febde811610071578063d6febde814610439578063f1d36cbc1461044c578063fbf3c5d81461045f578063fc0c546a1461047257600080fd5b8063a6f9dae1146103de578063a87430ba146103f1578063ca0f46c014610411578063cf749c461461042657600080fd5b806395f6a33c116100de57806395f6a33c1461039d578063976ae1a7146103b0578063a483bf5d146103b8578063a6c66943146103cb57600080fd5b806384f1049214610326578063893d20e8146103395780638990b6011461036357600080fd5b8063594f2dc41161017c5780637acc0b201161014b5780637acc0b20146102c35780637b480d00146102eb57806380a4dc121461030b5780638456cb591461031e57600080fd5b8063594f2dc41461026d5780635c975abb14610280578063703752251461029d57806378128609146102b057600080fd5b80632b233f70116101b85780632b233f701461020e578063385df2ec146102215780633f4ba83a1461025d578063570aea8a1461026557600080fd5b80621ca884146101de57806312055590146101e8578063197bd3a0146101fb575b600080fd5b6101e6610499565b005b6101e66101f63660046120b9565b6104fa565b6101e66102093660046120e9565b610691565b6101e661021c3660046120e9565b6106ed565b61024a61022f366004612127565b6001600160a01b031660009081526003602052604090205490565b6040519081526020015b60405180910390f35b6101e6610749565b60025461024a565b6101e661027b3660046121ec565b610784565b60005461028d9060ff1681565b6040519015158152602001610254565b6101e66102ab366004612233565b6107f0565b6101e66102be3660046122e1565b610ad3565b6102d66102d1366004612316565b611077565b6040516102549998979695949392919061238b565b6102fe6102f9366004612127565b6111e8565b60405161025491906123ee565b6101e66103193660046121ec565b611257565b6101e66112be565b6101e6610334366004612432565b6112fc565b60005461010090046001600160a01b03165b6040516001600160a01b039091168152602001610254565b61024a610371366004612432565b6001600160a01b0391909116600090815260036020908152604080832093835260019093019052205490565b6101e66103ab3660046120e9565b61139c565b60015461024a565b6101e66103c63660046120e9565b6113f8565b6101e66103d936600461245c565b611454565b6101e66103ec366004612127565b61164e565b61024a6103ff366004612127565b60036020526000908152604090205481565b6104196116e3565b6040516102549190612500565b6101e6610434366004612432565b611971565b6101e66104473660046120e9565b611a0a565b6101e661045a3660046120e9565b611f92565b61024a61046d366004612316565b611fee565b61034b7f000000000000000000000000000000000000000000000000000000000000000081565b60005461010090046001600160a01b031633146104d15760405162461bcd60e51b81526004016104c8906125d8565b60405180910390fd5b60018054806104e2576104e2612605565b60019003818190600052602060002001600090559055565b60005461010090046001600160a01b031633146105295760405162461bcd60e51b81526004016104c8906125d8565b80151515600283815481106105405761054061261b565b600091825260209091206003600990920201015460ff1615150361065757801561059d576001805480820182556000919091527fb10e2d527612073b26eecdfd717e6a320cf44b4afac2b0732d9fcbe2b7fa0cf601829055610657565b60005b6001548110156106555782600182815481106105be576105be61261b565b90600052602060002001540361064357600180546105dd908290612647565b815481106105ed576105ed61261b565b90600052602060002001546001828154811061060b5761060b61261b565b600091825260209091200155600180548061062857610628612605565b60019003818190600052602060002001600090559055610655565b8061064d8161265e565b9150506105a0565b505b806002838154811061066b5761066b61261b565b60009182526020909120600990910201600301805460ff19169115159190911790555050565b60005461010090046001600160a01b031633146106c05760405162461bcd60e51b81526004016104c8906125d8565b80600283815481106106d4576106d461261b565b9060005260206000209060090201600501819055505050565b60005461010090046001600160a01b0316331461071c5760405162461bcd60e51b81526004016104c8906125d8565b80600283815481106107305761073061261b565b9060005260206000209060090201600801819055505050565b60005461010090046001600160a01b031633146107785760405162461bcd60e51b81526004016104c8906125d8565b6000805460ff19169055565b60005461010090046001600160a01b031633146107b35760405162461bcd60e51b81526004016104c8906125d8565b80600283815481106107c7576107c761261b565b906000526020600020906009020160020190805190602001906107eb92919061200f565b505050565b60005461010090046001600160a01b0316331461081f5760405162461bcd60e51b81526004016104c8906125d8565b8515151560028a815481106108365761083661261b565b600091825260209091206003600990920201015460ff1615150361094d578515610893576001805480820182556000919091527fb10e2d527612073b26eecdfd717e6a320cf44b4afac2b0732d9fcbe2b7fa0cf60189905561094d565b60005b60015481101561094b5789600182815481106108b4576108b461261b565b90600052602060002001540361093957600180546108d3908290612647565b815481106108e3576108e361261b565b9060005260206000200154600182815481106109015761090161261b565b600091825260209091200155600180548061091e5761091e612605565b6001900381819060005260206000200160009055905561094b565b806109438161265e565b915050610896565b505b8760028a815481106109615761096161261b565b9060005260206000209060090201600101908051906020019061098592919061200f565b508660028a8154811061099a5761099a61261b565b906000526020600020906009020160020190805190602001906109be92919061200f565b508560028a815481106109d3576109d361261b565b906000526020600020906009020160030160006101000a81548160ff0219169083151502179055508460028a81548110610a0f57610a0f61261b565b9060005260206000209060090201600401819055508360028a81548110610a3857610a3861261b565b9060005260206000209060090201600501819055508260028a81548110610a6157610a6161261b565b9060005260206000209060090201600601819055508160028a81548110610a8a57610a8a61261b565b9060005260206000209060090201600701819055508060028a81548110610ab357610ab361261b565b906000526020600020906009020160080181905550505050505050505050565b600054600160a81b900460ff1615610b1d5760405162461bcd60e51b815260206004820152600d60248201526c4e6f207265656e7472616e637960981b60448201526064016104c8565b6000805460ff60a81b198116600160a81b1790915560ff1615610b785760405162461bcd60e51b815260206004820152601360248201527213585c9ad95d1c1b1858d94e881c185d5cd959606a1b60448201526064016104c8565b8260028181548110610b8c57610b8c61261b565b600091825260209091206003600990920201015460ff16610be35760405162461bcd60e51b815260206004820152601160248201527050726f647563743a20696e61637469766560781b60448201526064016104c8565b8360028181548110610bf757610bf761261b565b906000526020600020906009020160040154600014610c805760028181548110610c2357610c2361261b565b906000526020600020906009020160040154421015610c805760405162461bcd60e51b8152602060048201526019602482015278141c9bd91d58dd0e881cd85b19481b9bdd081cdd185c9d1959603a1b60448201526064016104c8565b60028181548110610c9357610c9361261b565b906000526020600020906009020160050154600014610d165760028181548110610cbf57610cbf61261b565b906000526020600020906009020160050154421115610d165760405162461bcd60e51b8152602060048201526013602482015272141c9bd91d58dd0e881cd85b1948195b991959606a1b60448201526064016104c8565b848460008160028481548110610d2e57610d2e61261b565b906000526020600020906009020160060154610d4a9190612647565b11610d8f5760405162461bcd60e51b815260206004820152601560248201527450726f647563743a206f7574206f662073746f636b60581b60448201526064016104c8565b86868660028381548110610da557610da561261b565b60009182526020808320600860099093020191909101546001600160a01b0384168352600382526040808420878552600101909252912054610de8908490612677565b1115610e065760405162461bcd60e51b81526004016104c89061268f565b7f00000000000000000000000000000000000000000000000000000000000000006001600160a01b03166323b872dd33600060019054906101000a90046001600160a01b03168c60028f81548110610e6057610e6061261b565b906000526020600020906009020160070154610e7c91906126d1565b6040516001600160e01b031960e086901b1681526001600160a01b03938416600482015292909116602483015260448201526064016020604051808303816000875af1158015610ed0573d6000803e3d6000fd5b505050506040513d601f19601f82011682018060405250810190610ef491906126f0565b610f385760405162461bcd60e51b8152602060048201526015602482015274109d5e4e881d1c985b9cd9995c9d0819985a5b1959605a1b60448201526064016104c8565b8860028b81548110610f4c57610f4c61261b565b906000526020600020906009020160070154610f6891906126d1565b3360009081526003602052604081208054909190610f87908490612677565b90915550506001600160a01b03881660009081526003602090815260408083208d84526001019091528120549003610fe8576001600160a01b0388166000908152600360209081526040822060020180546001810182559083529120018a90555b6001600160a01b03881660009081526003602090815260408083208d8452600101909152812080548b929061101e908490612677565b925050819055508860028b815481106110395761103961261b565b906000526020600020906009020160060160008282546110599190612647565b90915550506000805460ff60a81b1916905550505050505050505050565b6002818154811061108757600080fd5b600091825260209091206009909102018054600182018054919350906110ac9061270d565b80601f01602080910402602001604051908101604052809291908181526020018280546110d89061270d565b80156111255780601f106110fa57610100808354040283529160200191611125565b820191906000526020600020905b81548152906001019060200180831161110857829003601f168201915b50505050509080600201805461113a9061270d565b80601f01602080910402602001604051908101604052809291908181526020018280546111669061270d565b80156111b35780601f10611188576101008083540402835291602001916111b3565b820191906000526020600020905b81548152906001019060200180831161119657829003601f168201915b50505060038401546004850154600586015460068701546007880154600890980154969760ff90941696929550909350919089565b6001600160a01b03811660009081526003602090815260409182902060020180548351818402810184019094528084526060939283018282801561124b57602002820191906000526020600020905b815481526020019060010190808311611237575b50505050509050919050565b60005461010090046001600160a01b031633146112865760405162461bcd60e51b81526004016104c8906125d8565b806002838154811061129a5761129a61261b565b906000526020600020906009020160010190805190602001906107eb92919061200f565b60005461010090046001600160a01b031633146112ed5760405162461bcd60e51b81526004016104c8906125d8565b6000805460ff19166001179055565b60005461010090046001600160a01b0316331461132b5760405162461bcd60e51b81526004016104c8906125d8565b60405163a9059cbb60e01b8152336004820152602481018290526001600160a01b0383169063a9059cbb906044016020604051808303816000875af1158015611378573d6000803e3d6000fd5b505050506040513d601f19601f820116820180604052508101906107eb91906126f0565b60005461010090046001600160a01b031633146113cb5760405162461bcd60e51b81526004016104c8906125d8565b80600283815481106113df576113df61261b565b9060005260206000209060090201600401819055505050565b60005461010090046001600160a01b031633146114275760405162461bcd60e51b81526004016104c8906125d8565b806002838154811061143b5761143b61261b565b9060005260206000209060090201600601819055505050565b60005461010090046001600160a01b031633146114835760405162461bcd60e51b81526004016104c8906125d8565b85156114bf576002546001805480820182556000919091527fb10e2d527612073b26eecdfd717e6a320cf44b4afac2b0732d9fcbe2b7fa0cf601555b60408051610120810182526002805480835260208084018d81529484018c90528a15156060850152608084018a905260a0840189905260c0840188905260e084018790526101008401869052600182018355600092909252825160099091027f405787fa12a823e0f2b7631cc41b3ba8828b3321ca811111fa75cd3aa3bb5ace8101918255935180519394919361157f937f405787fa12a823e0f2b7631cc41b3ba8828b3321ca811111fa75cd3aa3bb5acf90930192919091019061200f565b506040820151805161159b91600284019160209091019061200f565b50606082015160038201805460ff19169115159190911790556080820151600482015560a0820151600582015560c0820151600682015560e08201516007820155610100909101516008909101556040518615159084906115fd908b90612741565b60405180910390207fa8833a90e36fed8afba875852db813138193c5dcc15f31c68d1db4039201695d85858c8b8b60405161163c95949392919061275d565b60405180910390a45050505050505050565b60005461010090046001600160a01b0316331461167d5760405162461bcd60e51b81526004016104c8906125d8565b600080546040516001600160a01b038085169361010090930416917f342827c97908e5e2f71151c08502a66d44b6f758e3ac2f1de95f02eb95f0a73591a3600080546001600160a01b0390921661010002610100600160a81b0319909216919091179055565b60015460609060009067ffffffffffffffff81111561170457611704612149565b60405190808252806020026020018201604052801561178657816020015b61177360405180610120016040528060008152602001606081526020016060815260200160001515815260200160008152602001600081526020016000815260200160008152602001600081525090565b8152602001906001900390816117225790505b50905060005b60015481101561196b576000600282815481106117ab576117ab61261b565b906000526020600020906009020190508060405180610120016040529081600082015481526020016001820180546117e29061270d565b80601f016020809104026020016040519081016040528092919081815260200182805461180e9061270d565b801561185b5780601f106118305761010080835404028352916020019161185b565b820191906000526020600020905b81548152906001019060200180831161183e57829003601f168201915b505050505081526020016002820180546118749061270d565b80601f01602080910402602001604051908101604052809291908181526020018280546118a09061270d565b80156118ed5780601f106118c2576101008083540402835291602001916118ed565b820191906000526020600020905b8154815290600101906020018083116118d057829003601f168201915b5050509183525050600382015460ff1615156020820152600482015460408201526005820154606082015260068201546080820152600782015460a082015260089091015460c090910152835184908490811061194c5761194c61261b565b60200260200101819052505080806119639061265e565b91505061178c565b50919050565b60005461010090046001600160a01b031633146119a05760405162461bcd60e51b81526004016104c8906125d8565b6040516323b872dd60e01b8152306004820152336024820152604481018290526001600160a01b038316906323b872dd90606401600060405180830381600087803b1580156119ee57600080fd5b505af1158015611a02573d6000803e3d6000fd5b505050505050565b600054600160a81b900460ff1615611a545760405162461bcd60e51b815260206004820152600d60248201526c4e6f207265656e7472616e637960981b60448201526064016104c8565b6000805460ff60a81b198116600160a81b1790915560ff1615611aaf5760405162461bcd60e51b815260206004820152601360248201527213585c9ad95d1c1b1858d94e881c185d5cd959606a1b60448201526064016104c8565b8160028181548110611ac357611ac361261b565b600091825260209091206003600990920201015460ff16611b1a5760405162461bcd60e51b815260206004820152601160248201527050726f647563743a20696e61637469766560781b60448201526064016104c8565b8260028181548110611b2e57611b2e61261b565b906000526020600020906009020160040154600014611bb75760028181548110611b5a57611b5a61261b565b906000526020600020906009020160040154421015611bb75760405162461bcd60e51b8152602060048201526019602482015278141c9bd91d58dd0e881cd85b19481b9bdd081cdd185c9d1959603a1b60448201526064016104c8565b60028181548110611bca57611bca61261b565b906000526020600020906009020160050154600014611c4d5760028181548110611bf657611bf661261b565b906000526020600020906009020160050154421115611c4d5760405162461bcd60e51b8152602060048201526013602482015272141c9bd91d58dd0e881cd85b1948195b991959606a1b60448201526064016104c8565b838360008160028481548110611c6557611c6561261b565b906000526020600020906009020160060154611c819190612647565b11611cc65760405162461bcd60e51b815260206004820152601560248201527450726f647563743a206f7574206f662073746f636b60581b60448201526064016104c8565b85853360028381548110611cdc57611cdc61261b565b60009182526020808320600860099093020191909101546001600160a01b0384168352600382526040808420878552600101909252912054611d1f908490612677565b1115611d3d5760405162461bcd60e51b81526004016104c89061268f565b7f00000000000000000000000000000000000000000000000000000000000000006001600160a01b03166323b872dd33600060019054906101000a90046001600160a01b03168b60028e81548110611d9757611d9761261b565b906000526020600020906009020160070154611db391906126d1565b6040516001600160e01b031960e086901b1681526001600160a01b03938416600482015292909116602483015260448201526064016020604051808303816000875af1158015611e07573d6000803e3d6000fd5b505050506040513d601f19601f82011682018060405250810190611e2b91906126f0565b611e6f5760405162461bcd60e51b8152602060048201526015602482015274109d5e4e881d1c985b9cd9995c9d0819985a5b1959605a1b60448201526064016104c8565b8760028a81548110611e8357611e8361261b565b906000526020600020906009020160070154611e9f91906126d1565b3360009081526003602052604081208054909190611ebe908490612677565b90915550503360009081526003602090815260408083208c84526001019091528120549003611f0d57336000908152600360209081526040822060020180546001810182559083529120018990555b3360009081526003602090815260408083208c8452600101909152812080548a9290611f3a908490612677565b925050819055508760028a81548110611f5557611f5561261b565b90600052602060002090600902016006016000828254611f759190612647565b90915550506000805460ff60a81b19169055505050505050505050565b60005461010090046001600160a01b03163314611fc15760405162461bcd60e51b81526004016104c8906125d8565b8060028381548110611fd557611fd561261b565b9060005260206000209060090201600701819055505050565b60018181548110611ffe57600080fd5b600091825260209091200154905081565b82805461201b9061270d565b90600052602060002090601f01602090048101928261203d5760008555612083565b82601f1061205657805160ff1916838001178555612083565b82800160010185558215612083579182015b82811115612083578251825591602001919060010190612068565b5061208f929150612093565b5090565b5b8082111561208f5760008155600101612094565b80151581146120b657600080fd5b50565b600080604083850312156120cc57600080fd5b8235915060208301356120de816120a8565b809150509250929050565b600080604083850312156120fc57600080fd5b50508035926020909101359150565b80356001600160a01b038116811461212257600080fd5b919050565b60006020828403121561213957600080fd5b6121428261210b565b9392505050565b634e487b7160e01b600052604160045260246000fd5b600082601f83011261217057600080fd5b813567ffffffffffffffff8082111561218b5761218b612149565b604051601f8301601f19908116603f011681019082821181831017156121b3576121b3612149565b816040528381528660208588010111156121cc57600080fd5b836020870160208301376000602085830101528094505050505092915050565b600080604083850312156121ff57600080fd5b82359150602083013567ffffffffffffffff81111561221d57600080fd5b6122298582860161215f565b9150509250929050565b60008060008060008060008060006101208a8c03121561225257600080fd5b8935985060208a013567ffffffffffffffff8082111561227157600080fd5b61227d8d838e0161215f565b995060408c013591508082111561229357600080fd5b506122a08c828d0161215f565b97505060608a01356122b1816120a8565b989b979a50959860808101359760a0820135975060c0820135965060e08201359550610100909101359350915050565b6000806000606084860312156122f657600080fd5b833592506020840135915061230d6040850161210b565b90509250925092565b60006020828403121561232857600080fd5b5035919050565b60005b8381101561234a578181015183820152602001612332565b83811115612359576000848401525b50505050565b6000815180845261237781602086016020860161232f565b601f01601f19169290920160200192915050565b60006101208b83528060208401526123a58184018c61235f565b905082810360408401526123b9818b61235f565b98151560608401525050608081019590955260a085019390935260c084019190915260e0830152610100909101529392505050565b6020808252825182820181905260009190848201906040850190845b818110156124265783518352928401929184019160010161240a565b50909695505050505050565b6000806040838503121561244557600080fd5b61244e8361210b565b946020939093013593505050565b600080600080600080600080610100898b03121561247957600080fd5b883567ffffffffffffffff8082111561249157600080fd5b61249d8c838d0161215f565b995060208b01359150808211156124b357600080fd5b506124c08b828c0161215f565b97505060408901356124d1816120a8565b979a96995096976060810135975060808101359660a0820135965060c0820135955060e0909101359350915050565b60006020808301818452808551808352604092508286019150828160051b87010184880160005b838110156125ca57603f1989840301855281516101208151855288820151818a8701526125568287018261235f565b915050878201518582038987015261256e828261235f565b9150506060808301516125848288018215159052565b50506080828101519086015260a0808301519086015260c0808301519086015260e080830151908601526101009182015191909401529386019390860190600101612527565b509098975050505050505050565b60208082526013908201527221b0b63632b91034b9903737ba1037bbb732b960691b604082015260600190565b634e487b7160e01b600052603160045260246000fd5b634e487b7160e01b600052603260045260246000fd5b634e487b7160e01b600052601160045260246000fd5b60008282101561265957612659612631565b500390565b60006001820161267057612670612631565b5060010190565b6000821982111561268a5761268a612631565b500190565b60208082526022908201527f50726f647563743a206c696d697420666f722075736572206973207265616368604082015261195960f21b606082015260800190565b60008160001904831182151516156126eb576126eb612631565b500290565b60006020828403121561270257600080fd5b8151612142816120a8565b600181811c9082168061272157607f821691505b60208210810361196b57634e487b7160e01b600052602260045260246000fd5b6000825161275381846020870161232f565b9190910192915050565b85815284602082015260a06040820152600061277c60a083018661235f565b60608301949094525060800152939250505056fea2646970667358221220c8c16769414489f75c98cf4322b93e289e9e416d43a490e8c210132cf934dca864736f6c634300080e0033",
  "linkReferences": {},
  "deployedLinkReferences": {}
}